:1000000080316A290000533A6139F41021005039D7
:10001000E539F33AF232A0296537F33772103A1016
:10002000252675100D05000021000E1222000E126B
:100030000830F8001B280000F8172E28F8132000BD
:10004000BF0C220003180E16031C0E1278172E2860
:100050007813F80B1F282C2800000E160130F7002B
:100060008401840B3128F70B30280D308400840B79
:1000700037283A28F81B1E28781B2828200008005B
:100080000B088B1323009517151400000000891B23
:100090008B1713087F39031988282000B10023002B
:1000A00011082000B200230012082000B30031081C
:1000B000BF001420320823009100200033082300E1
:1000C00092000B088B139517151400000000891B74
:1000D0008B17130D140D7F39031988282000B100E8
:1000E000230011082000B200230012082000B300F2
:1000F0003108BF001420320823009100200033088B
:1001000023009200910A0319920A2000402823003C
:10011000803120009F290230B002031C9C2820302F
:10012000850010308400000803199C289A2898281C
:1001300099280000800B97288031AA290B088B137F
:1001400023009517151400000000891B8B17031856
:10015000CF2813087F392000B100230011082000A8
:10016000B200230012082000B3003108BF001420A1
:1001700032082300910020003308230092000B086E
:100180008B139517151400000000891B8B17200096
:10019000B00BCB28CD282300CF28ED282300130D4A
:1001A000140D7F392000B100230011082000B20097
:1001B000230012082000B3003108BF0014203208C9
:1001C000230091002000330823009200910A0319B4
:1001D000920A03102000B00B9E288031BF29050829
:1001E000BE000408BD00310EF038B900B907E23E88
:1001F000BA00323EBC0031080F39BA07BA07BC0753
:10020000E93EBB00BB07BB07300E0F39BB07BC077D
:10021000BB0DBC0DBC09BC0D30080F39BC07B90DB6
:100220000730B8000A30BC07BB03031C1329BB0707
:10023000BA03031C1729BA07B903031C1B29B90702
:10024000B803031C1F2920308500183084000730B4
:100250003D053D1384070030853D04081C3C031D0B
:1002600035290508203C03193D170008F700031D38
:1002700041293D1B41293D1A5029BD1941292030F2
:100280004429BD153D123030F7070508B1000408B8
:10029000B0007708BF0014203108850030088400C2
:1002A00001313D1F2D298031C629203085001130B4
:1002B00084000008031969290A30F800F701F70BD8
:1002C0005F29F80B5E295F30F700F70B6529800B7B
:1002D0005C290800F030210099000E1222000E1651
:1002E0002000A101A00123008C018E0122009201B7
:1002F0009101940193012000A201A301A401A50191
:10030000A701A601AB01AA01A901A801AF01AE0195
:10031000AD01AC0121001E109E10043023008C00A2
:1003200000308E0021001E169E161E139E171D14EF
:100330000330230091000030920020004028083054
:10034000F80021001D08833978049D0064302000E6
:10035000B0008B2821009D149D18AC291C08FA00C0
:100360001B082000A6007A08A70007302300910090
:1003700000309200031012302000B0009E28103090
:1003800084002708B1002608B000EF282030BF0005
:1003900014200D30BF0014200A30BF001420043098
:1003A000B000FA30B1005521B00BD1296430B10052
:0603B0005521AA2963009B
:020000040001F9
:04000E008438871E8D
:00000001FF
;PIC16F1705
;CRC=3C1D  CREATED="25-¡.¤.-16 13:13"
